{
  "_format": "hh-sol-artifact-1",
  "contractName": "DAOSpokeContract",
  "sourceName": "contracts/governance/DAOSpokeContract.sol",
  "abi": [
    {
      "inputs": [
        {
          "internalType": "bytes32",
          "name": "_hubContractAddress",
          "type": "bytes32"
        },
        {
          "internalType": "uint16",
          "name": "_hubContractChainId",
          "type": "uint16"
        },
        {
          "internalType": "contract IVotes",
          "name": "_token",
          "type": "address"
        },
        {
          "internalType": "uint256",
          "name": "_targetSecondsPerBlock",
          "type": "uint256"
        },
        {
          "internalType": "uint16",
          "name": "_chainId",
          "type": "uint16"
        },
        {
          "internalType": "address",
          "name": "_wormholeRelayerAddress",
          "type": "address"
        },
        {
          "internalType": "address",
          "name": "_magistrateAddress",
          "type": "address"
        }
      ],
      "stateMutability": "nonpayable",
      "type": "constructor"
    },
    {
      "anonymous": false,
      "inputs": [
        {
          "indexed": true,
          "internalType": "address",
          "name": "previousMagistrate",
          "type": "address"
        },
        {
          "indexed": true,
          "internalType": "address",
          "name": "newMagistrate",
          "type": "address"
        }
      ],
      "name": "MagistrateChanged",
      "type": "event"
    },
    {
      "anonymous": false,
      "inputs": [
        {
          "indexed": true,
          "internalType": "address",
          "name": "voter",
          "type": "address"
        },
        {
          "indexed": false,
          "internalType": "uint256",
          "name": "proposalId",
          "type": "uint256"
        },
        {
          "indexed": false,
          "internalType": "uint8",
          "name": "support",
          "type": "uint8"
        },
        {
          "indexed": false,
          "internalType": "uint256",
          "name": "weight",
          "type": "uint256"
        },
        {
          "indexed": false,
          "internalType": "string",
          "name": "reason",
          "type": "string"
        }
      ],
      "name": "VoteCast",
      "type": "event"
    },
    {
      "inputs": [
        {
          "internalType": "uint256",
          "name": "proposalId",
          "type": "uint256"
        },
        {
          "internalType": "uint8",
          "name": "support",
          "type": "uint8"
        }
      ],
      "name": "castVote",
      "outputs": [
        {
          "internalType": "uint256",
          "name": "",
          "type": "uint256"
        }
      ],
      "stateMutability": "nonpayable",
      "type": "function"
    },
    {
      "inputs": [],
      "name": "chainId",
      "outputs": [
        {
          "internalType": "uint16",
          "name": "",
          "type": "uint16"
        }
      ],
      "stateMutability": "view",
      "type": "function"
    },
    {
      "inputs": [
        {
          "internalType": "uint256",
          "name": "proposalId",
          "type": "uint256"
        },
        {
          "internalType": "address",
          "name": "account",
          "type": "address"
        }
      ],
      "name": "hasVoted",
      "outputs": [
        {
          "internalType": "bool",
          "name": "",
          "type": "bool"
        }
      ],
      "stateMutability": "view",
      "type": "function"
    },
    {
      "inputs": [],
      "name": "hubContractAddress",
      "outputs": [
        {
          "internalType": "bytes32",
          "name": "",
          "type": "bytes32"
        }
      ],
      "stateMutability": "view",
      "type": "function"
    },
    {
      "inputs": [],
      "name": "hubContractChainId",
      "outputs": [
        {
          "internalType": "uint16",
          "name": "",
          "type": "uint16"
        }
      ],
      "stateMutability": "view",
      "type": "function"
    },
    {
      "inputs": [
        {
          "internalType": "uint256",
          "name": "proposalId",
          "type": "uint256"
        }
      ],
      "name": "isProposal",
      "outputs": [
        {
          "internalType": "bool",
          "name": "",
          "type": "bool"
        }
      ],
      "stateMutability": "view",
      "type": "function"
    },
    {
      "inputs": [],
      "name": "magistrate",
      "outputs": [
        {
          "internalType": "address",
          "name": "",
          "type": "address"
        }
      ],
      "stateMutability": "view",
      "type": "function"
    },
    {
      "inputs": [
        {
          "internalType": "bytes32",
          "name": "",
          "type": "bytes32"
        }
      ],
      "name": "processedMessages",
      "outputs": [
        {
          "internalType": "bool",
          "name": "",
          "type": "bool"
        }
      ],
      "stateMutability": "view",
      "type": "function"
    },
    {
      "inputs": [
        {
          "internalType": "uint256",
          "name": "",
          "type": "uint256"
        }
      ],
      "name": "proposalVotes",
      "outputs": [
        {
          "internalType": "uint256",
          "name": "againstVotes",
          "type": "uint256"
        },
        {
          "internalType": "uint256",
          "name": "forVotes",
          "type": "uint256"
        },
        {
          "internalType": "uint256",
          "name": "abstainVotes",
          "type": "uint256"
        }
      ],
      "stateMutability": "view",
      "type": "function"
    },
    {
      "inputs": [
        {
          "internalType": "uint256",
          "name": "",
          "type": "uint256"
        }
      ],
      "name": "proposals",
      "outputs": [
        {
          "internalType": "uint256",
          "name": "proposalCreation",
          "type": "uint256"
        },
        {
          "internalType": "uint256",
          "name": "localVoteStart",
          "type": "uint256"
        },
        {
          "internalType": "uint256",
          "name": "localVoteEnd",
          "type": "uint256"
        },
        {
          "internalType": "uint256",
          "name": "localVoteStartBlock",
          "type": "uint256"
        },
        {
          "internalType": "bool",
          "name": "voteFinished",
          "type": "bool"
        }
      ],
      "stateMutability": "view",
      "type": "function"
    },
    {
      "inputs": [
        {
          "internalType": "bytes",
          "name": "payload",
          "type": "bytes"
        },
        {
          "internalType": "bytes[]",
          "name": "",
          "type": "bytes[]"
        },
        {
          "internalType": "bytes32",
          "name": "sourceAddress",
          "type": "bytes32"
        },
        {
          "internalType": "uint16",
          "name": "sourceChain",
          "type": "uint16"
        },
        {
          "internalType": "bytes32",
          "name": "deliveryHash",
          "type": "bytes32"
        }
      ],
      "name": "receiveWormholeMessages",
      "outputs": [],
      "stateMutability": "payable",
      "type": "function"
    },
    {
      "inputs": [
        {
          "internalType": "uint256",
          "name": "proposalId",
          "type": "uint256"
        }
      ],
      "name": "sendVoteResultToHub",
      "outputs": [],
      "stateMutability": "payable",
      "type": "function"
    },
    {
      "inputs": [],
      "name": "targetSecondsPerBlock",
      "outputs": [
        {
          "internalType": "uint256",
          "name": "",
          "type": "uint256"
        }
      ],
      "stateMutability": "view",
      "type": "function"
    },
    {
      "inputs": [],
      "name": "token",
      "outputs": [
        {
          "internalType": "contract IVotes",
          "name": "",
          "type": "address"
        }
      ],
      "stateMutability": "view",
      "type": "function"
    },
    {
      "inputs": [
        {
          "internalType": "address",
          "name": "newMagistrate",
          "type": "address"
        }
      ],
      "name": "transferMagistrate",
      "outputs": [],
      "stateMutability": "nonpayable",
      "type": "function"
    },
    {
      "inputs": [],
      "name": "withdrawFunds",
      "outputs": [],
      "stateMutability": "nonpayable",
      "type": "function"
    },
    {
      "inputs": [],
      "name": "wormholeRelayer",
      "outputs": [
        {
          "internalType": "contract IWormholeRelayer",
          "name": "",
          "type": "address"
        }
      ],
      "stateMutability": "view",
      "type": "function"
    }
  ],
  "bytecode": "0x610140346200018457601f6200180d38819003918201601f19168301916001600160401b03831184841017620001895780849260e0946040528339810103126200018457805162000053602083016200019f565b6040830151916001600160a01b0391908284168403620001845760608501519262000081608087016200019f565b936200009e60c06200009660a08a01620001af565b9801620001af565b958260005497168060018060a01b03198916176000558360405198167fb4aa40c4569b1278aa7da5bab0f345910781d388f8257b0bec17a317e2efb6b5600080a360c05260e0526101209384526101009516855260805260a0526116489283620001c584396080518381816103e40152818161097d0152610e9a015260a051838181610406015281816109410152818161105c0152611121015260c0518381816107ce0152610a23015260e05183818161025f01528181611445015261148501525182818161047d015281816109b601528181610e6c015261137a015251816109020152f35b600080fd5b634e487b7160e01b600052604160045260246000fd5b519061ffff821682036200018457565b51906001600160a01b0382168203620001845756fe6080604052600436101561001257600080fd5b60003560e01c8063013cf08b1461012757806324600fc31461012257806332d0c46d1461011d57806334feb318146101185780633ba2459414610113578063438596321461010e57806345e6efa114610109578063529dca3214610104578063544ffc9c146100ff57806356781388146100fa57806388ba16ab146100f55780639a8a0592146100f0578063b0f6b697146100eb578063d8c71a92146100e6578063da25b725146100e1578063e1171999146100dc5763fc0c546a146100d757600080fd5b610a0d565b6109e5565b6109a0565b610965565b610926565b6108e7565b6108b6565b61072b565b6106e8565b610622565b61051f565b6104d8565b610362565b610293565b610247565b61019e565b61013c565b6000526001602052604060002090565b3461019957602036600319011261019957600435600052600160205260a06040600020805490600181015490600281015460ff60046003840154930154169260405194855260208501526040840152606083015215156080820152f35b600080fd5b3461019957600080600319360112610244576101b8611271565b478047106101ff57818080806101f794335af13d156101fa573d6101db816105a5565b906101e9604051928361055e565b81528360203d92013e6112db565b80f35b6112db565b60405162461bcd60e51b815260206004820152601d60248201527f416464726573733a20696e73756666696369656e742062616c616e63650000006044820152606490fd5b80fd5b346101995760003660031901126101995760206040517f00000000000000000000000000000000000000000000000000000000000000008152f35b6001600160a01b0381160361019957565b34610199576020366003190112610199576004356102b081610282565b6102b8611271565b6001600160a01b03908116801561030657600080546001600160a01b03198116831782559092167fb4aa40c4569b1278aa7da5bab0f345910781d388f8257b0bec17a317e2efb6b58380a380f35b60405162461bcd60e51b815260206004820152602e60248201527f4d6167697374726174653a206e6577206d61676973747261746520697320746860448201526d65207a65726f206164647265737360901b6064820152608490fd5b6020806003193601126101995761047981610437600435610397610392600461038a8461012c565b015460ff1690565b610a52565b6103ab816000526002602052604060002090565b906103cb6001830154926002815491015490604051948594888601610aad565b03906103df601f199283810183528261055e565b6104437f0000000000000000000000000000000000000000000000000000000000000000927f0000000000000000000000000000000000000000000000000000000000000000926040519586913386888b8601610b18565b0390810185528461055e565b61044c8161134a565b6040516312d729bd60e21b81529586946001600160a01b0394869485939291871691828260048701610b69565b03927f0000000000000000000000000000000000000000000000000000000000000000165af180156104d3576104ab57005b816104ca92903d106104cc575b6104c2818361055e565b810190610b4a565b005b503d6104b8565b610bb8565b3461019957604036600319011261019957602060ff6105136024356104fc81610282565b600435600052600284526003604060002001610bc4565b54166040519015158152f35b34610199576000366003190112610199576000546040516001600160a01b039091168152602090f35b634e487b7160e01b600052604160045260246000fd5b601f909101601f19168101906001600160401b0382119082101761058157604052565b610548565b6040519060a082016001600160401b0381118382101761058157604052565b6001600160401b03811161058157601f01601f191660200190565b81601f82011215610199578035906105d7826105a5565b926105e5604051948561055e565b8284526020838301011161019957816000926020809301838601378301015290565b61ffff81160361019957565b6064359061062082610607565b565b60a0366003190112610199576001600160401b036004358181116101995761064e9036906004016105c0565b6024803590838211610199573660238301121561019957816004013593808511610581578460051b906024602080976040519061068d8387018361055e565b81520192850101933685116101995760248101925b8584106106c2576104ca876106b5610613565b6084359160443590610e52565b83358381116101995788916106dd83928836918701016105c0565b8152019301926106a2565b3461019957602036600319011261019957600435600052600260205260606040600020805490600260018201549101549060405192835260208301526040820152f35b346101995760403660031901126101995760043560243560ff811681036101995781602061075b6107ca9461012c565b61076c6107678461125b565b611148565b610789610784610780600484015460ff1690565b1590565b6111a0565b6107a36001820154918242101590816108a8575b506111ec565b604051630748d63560e31b8152336004820152602481019190915293849081906044820190565b03817f00000000000000000000000000000000000000000000000000000000000000006001600160a01b03165afa9182156104d35761086393600093610867575b508281610829826000805160206115f383398151915294338761150e565b6040805194855260ff919091166020850152830152608060608301819052600090830152339160a090a26040519081529081906020820190565b0390f35b6000805160206115f383398151915291935061089a9060203d6020116108a1575b610892818361055e565b81019061124c565b929061080b565b503d610888565b60029150015442103861079d565b34610199576020366003190112610199576004356000526003602052602060ff604060002054166040519015158152f35b3461019957600036600319011261019957602060405161ffff7f0000000000000000000000000000000000000000000000000000000000000000168152f35b3461019957600036600319011261019957602060405161ffff7f0000000000000000000000000000000000000000000000000000000000000000168152f35b346101995760003660031901126101995760206040517f00000000000000000000000000000000000000000000000000000000000000008152f35b34610199576000366003190112610199576040517f00000000000000000000000000000000000000000000000000000000000000006001600160a01b03168152602090f35b34610199576020366003190112610199576020610a0360043561125b565b6040519015158152f35b34610199576000366003190112610199576040517f00000000000000000000000000000000000000000000000000000000000000006001600160a01b03168152602090f35b15610a5957565b60405162461bcd60e51b815260206004820152602660248201527f44414f53706f6b65436f6e74726163743a20766f7465206973206e6f742066696044820152651b9a5cda195960d21b6064820152608490fd5b9094939260809260a0830196600084526020840152604083015260608201520152565b60005b838110610ae35750506000910152565b8181015183820152602001610ad3565b90602091610b0c81518092818552858086019101610ad0565b601f01601f1916010190565b909261ffff608093610b479695845216602083015260018060a01b031660408201528160608201520190610af3565b90565b9081602091031261019957516001600160401b03811681036101995790565b93959490610b9b60c09461ffff809316875260018060a01b03809516602088015260e0604088015260e0870190610af3565b96600060608701526207a12060808701521660a085015216910152565b6040513d6000823e3d90fd5b9060018060a01b0316600052602052604060002090565b15610be257565b60405162461bcd60e51b815260206004820152601460248201527313db9b1e481c995b185e595c88185b1b1bddd95960621b6044820152606490fd5b15610c2557565b60405162461bcd60e51b815260206004820152603460248201527f4f6e6c79206d657373616765732066726f6d207468652068756220636f6e74726044820152736163742063616e2062652072656365697665642160601b6064820152608490fd5b15610c8e57565b60405162461bcd60e51b815260206004820152601960248201527813595cdcd859d948185b1c9958591e481c1c9bd8d95cdcd959603a1b6044820152606490fd5b608081830312610199578051610ce481610282565b926020820151610cf381610607565b926040830151610d0281610282565b606084015190936001600160401b038211610199570181601f82011215610199578051610d2e816105a5565b92610d3c604051948561055e565b8184526020828401011161019957610b479160208085019101610ad0565b15610d6157565b60405162461bcd60e51b815260206004820152602a60248201527f4d657373616765206973206e6f742061646472657373656420666f72207468696044820152691cc818dbdb9d1c9858dd60b21b6064820152608490fd5b91908260409103126101995760208251610dd281610607565b92015190565b908160a0910312610199578051610dee81610607565b916020820151916040810151916080606083015192015190565b15610e0f57565b60405162461bcd60e51b815260206004820152601b60248201527a283937b837b9b0b61024a21036bab9ba103132903ab734b8bab29760291b6044820152606490fd5b92610f169192610f33610f2660018060a01b0393610ec9857f00000000000000000000000000000000000000000000000000000000000000001694610e98863314610bdb565b7f00000000000000000000000000000000000000000000000000000000000000009889149081611116575b50610c1e565b610ef2610eed610780610ee6846000526003602052604060002090565b5460ff1690565b610c87565b610f07885198602080809b8301019101610ccf565b98929150508630911614610d5a565b6000526003602052604060002090565b805460ff19166001179055565b8483019361ffff8551168015600014610fe35750505050610f6183926106209483610fa89451010190610dd8565b9195929350610f7a610f756107808661125b565b610e08565b610f838161142d565b92610f8c610586565b968752860152604085015260608401526000608084015261012c565b60046080918351815560208401516001820155604084015160028201556060840151600382015501910151151560ff80198354169116179055565b929492600114610ff6575b505050505050565b6110e09461100e61108e948887819851010190610db9565b919050611025826000526002602052604060002090565b9261109a600185015461104760028754970154604051978893888d8601610aad565b0361105a601f199182810188528761055e565b7f0000000000000000000000000000000000000000000000000000000000000000956040519889918b898733928601610b18565b0390810188528761055e565b6110bf60046110b16110ab8761134a565b9561012c565b01805460ff19166001179055565b1693604051968795869485936312d729bd60e21b8552828260048701610b69565b03925af180156104d3576110f8575b80808080610fee565b8161110e92903d106104cc576104c2818361055e565b5038806110ef565b905061ffff809116907f0000000000000000000000000000000000000000000000000000000000000000161438610ec3565b1561114f57565b60405162461bcd60e51b8152602060048201526024808201527f44414f53706f6b65436f6e74726163743a206e6f742061207374617274656420604482015263766f746560e01b6064820152608490fd5b156111a757565b60405162461bcd60e51b815260206004820152601f60248201527f44414f53706f6b65436f6e74726163743a20766f74652066696e6973686564006044820152606490fd5b156111f357565b60405162461bcd60e51b815260206004820152602b60248201527f44414f53706f6b65436f6e74726163743a20766f7465206e6f7420637572726560448201526a6e746c792061637469766560a81b6064820152608490fd5b90816020910312610199575190565b6000526001602052600160406000200154151590565b6000546001600160a01b0316330361128557565b60405162461bcd60e51b815260206004820152602860248201527f4d6167697374726174653a2063616c6c6572206973206e6f7420746865206d61604482015267676973747261746560c01b6064820152608490fd5b156112e257565b60405162461bcd60e51b815260206004820152603a60248201527f416464726573733a20756e61626c6520746f2073656e642076616c75652c20726044820152791958da5c1a595b9d081b585e481a185d99481c995d995c9d195960321b6064820152608490fd5b6040805163c23ee3c360e01b815261ffff929092166004830152600060248301526207a1206044830152816064817f00000000000000000000000000000000000000000000000000000000000000006001600160a01b03165afa9081156104d3576000916113b6575090565b90506040813d6040116113dd575b816113d16040938361055e565b81010312610199575190565b3d91506113c4565b634e487b7160e01b600052601160045260246000fd5b8115611405570490565b634e487b7160e01b600052601260045260246000fd5b9190820180921161142857565b6113e5565b42811115611476574281039081116114285761146a907f0000000000000000000000000000000000000000000000000000000000000000906113fb565b43018043116114285790565b4203428111611428576114aa907f0000000000000000000000000000000000000000000000000000000000000000906113fb565b43034381116114285790565b156114bd57565b60405162461bcd60e51b815260206004820152602360248201527f44414f53706f6b65436f6e74726163743a20766f746520616c72656164792063604482015262185cdd60ea1b6064820152608490fd5b9161154e610f2661152c60ff94956000526002602052604060002090565b9460038601611549611544610780610ee68585610bc4565b6114b6565b610bc4565b168061156557509061156190825461141b565b9055565b6001810361157d57506001611561910191825461141b565b600203611593576002611561910191825461141b565b60405162461bcd60e51b815260206004820152603160248201527f44414f53706f6b65436f6e74726163743a20696e76616c69642076616c756520604482015270666f7220656e756d20566f74655479706560781b6064820152608490fdfeb8e138887d0aa13bab447e82de9d5c1777041ecd21ca36ba824ff1e6c07ddda4a2646970667358221220330a3c3a87cd2b62ce7a269dd6a3b65e965bc1da92a536c29b7f84d8900a8e5c64736f6c63430008170033",
  "linkReferences": {},
  "deployedLinkReferences": {}
}