{
  "_format": "hh-sol-artifact-1",
  "contractName": "VHMToken",
  "sourceName": "contracts/governance/vhm-token/VHMToken.sol",
  "abi": [
    {
      "inputs": [
        {
          "internalType": "contract IERC20",
          "name": "wrappedToken",
          "type": "address"
        }
      ],
      "stateMutability": "nonpayable",
      "type": "constructor"
    },
    {
      "inputs": [],
      "name": "InvalidShortString",
      "type": "error"
    },
    {
      "inputs": [
        {
          "internalType": "string",
          "name": "str",
          "type": "string"
        }
      ],
      "name": "StringTooLong",
      "type": "error"
    },
    {
      "anonymous": false,
      "inputs": [
        {
          "indexed": true,
          "internalType": "address",
          "name": "owner",
          "type": "address"
        },
        {
          "indexed": true,
          "internalType": "address",
          "name": "spender",
          "type": "address"
        },
        {
          "indexed": false,
          "internalType": "uint256",
          "name": "value",
          "type": "uint256"
        }
      ],
      "name": "Approval",
      "type": "event"
    },
    {
      "anonymous": false,
      "inputs": [
        {
          "indexed": true,
          "internalType": "address",
          "name": "delegator",
          "type": "address"
        },
        {
          "indexed": true,
          "internalType": "address",
          "name": "fromDelegate",
          "type": "address"
        },
        {
          "indexed": true,
          "internalType": "address",
          "name": "toDelegate",
          "type": "address"
        }
      ],
      "name": "DelegateChanged",
      "type": "event"
    },
    {
      "anonymous": false,
      "inputs": [
        {
          "indexed": true,
          "internalType": "address",
          "name": "delegate",
          "type": "address"
        },
        {
          "indexed": false,
          "internalType": "uint256",
          "name": "previousBalance",
          "type": "uint256"
        },
        {
          "indexed": false,
          "internalType": "uint256",
          "name": "newBalance",
          "type": "uint256"
        }
      ],
      "name": "DelegateVotesChanged",
      "type": "event"
    },
    {
      "anonymous": false,
      "inputs": [],
      "name": "EIP712DomainChanged",
      "type": "event"
    },
    {
      "anonymous": false,
      "inputs": [
        {
          "indexed": true,
          "internalType": "address",
          "name": "from",
          "type": "address"
        },
        {
          "indexed": true,
          "internalType": "address",
          "name": "to",
          "type": "address"
        },
        {
          "indexed": false,
          "internalType": "uint256",
          "name": "value",
          "type": "uint256"
        }
      ],
      "name": "Transfer",
      "type": "event"
    },
    {
      "inputs": [],
      "name": "CLOCK_MODE",
      "outputs": [
        {
          "internalType": "string",
          "name": "",
          "type": "string"
        }
      ],
      "stateMutability": "pure",
      "type": "function"
    },
    {
      "inputs": [],
      "name": "DOMAIN_SEPARATOR",
      "outputs": [
        {
          "internalType": "bytes32",
          "name": "",
          "type": "bytes32"
        }
      ],
      "stateMutability": "view",
      "type": "function"
    },
    {
      "inputs": [
        {
          "internalType": "address",
          "name": "owner",
          "type": "address"
        },
        {
          "internalType": "address",
          "name": "spender",
          "type": "address"
        }
      ],
      "name": "allowance",
      "outputs": [
        {
          "internalType": "uint256",
          "name": "",
          "type": "uint256"
        }
      ],
      "stateMutability": "view",
      "type": "function"
    },
    {
      "inputs": [
        {
          "internalType": "address",
          "name": "spender",
          "type": "address"
        },
        {
          "internalType": "uint256",
          "name": "amount",
          "type": "uint256"
        }
      ],
      "name": "approve",
      "outputs": [
        {
          "internalType": "bool",
          "name": "",
          "type": "bool"
        }
      ],
      "stateMutability": "nonpayable",
      "type": "function"
    },
    {
      "inputs": [
        {
          "internalType": "address",
          "name": "account",
          "type": "address"
        }
      ],
      "name": "balanceOf",
      "outputs": [
        {
          "internalType": "uint256",
          "name": "",
          "type": "uint256"
        }
      ],
      "stateMutability": "view",
      "type": "function"
    },
    {
      "inputs": [
        {
          "internalType": "address",
          "name": "account",
          "type": "address"
        },
        {
          "internalType": "uint32",
          "name": "pos",
          "type": "uint32"
        }
      ],
      "name": "checkpoints",
      "outputs": [
        {
          "components": [
            {
              "internalType": "uint32",
              "name": "fromBlock",
              "type": "uint32"
            },
            {
              "internalType": "uint224",
              "name": "votes",
              "type": "uint224"
            }
          ],
          "internalType": "struct ERC20Votes.Checkpoint",
          "name": "",
          "type": "tuple"
        }
      ],
      "stateMutability": "view",
      "type": "function"
    },
    {
      "inputs": [],
      "name": "clock",
      "outputs": [
        {
          "internalType": "uint48",
          "name": "",
          "type": "uint48"
        }
      ],
      "stateMutability": "view",
      "type": "function"
    },
    {
      "inputs": [],
      "name": "decimals",
      "outputs": [
        {
          "internalType": "uint8",
          "name": "",
          "type": "uint8"
        }
      ],
      "stateMutability": "view",
      "type": "function"
    },
    {
      "inputs": [
        {
          "internalType": "address",
          "name": "spender",
          "type": "address"
        },
        {
          "internalType": "uint256",
          "name": "subtractedValue",
          "type": "uint256"
        }
      ],
      "name": "decreaseAllowance",
      "outputs": [
        {
          "internalType": "bool",
          "name": "",
          "type": "bool"
        }
      ],
      "stateMutability": "nonpayable",
      "type": "function"
    },
    {
      "inputs": [
        {
          "internalType": "address",
          "name": "delegatee",
          "type": "address"
        }
      ],
      "name": "delegate",
      "outputs": [],
      "stateMutability": "nonpayable",
      "type": "function"
    },
    {
      "inputs": [
        {
          "internalType": "address",
          "name": "delegatee",
          "type": "address"
        },
        {
          "internalType": "uint256",
          "name": "nonce",
          "type": "uint256"
        },
        {
          "internalType": "uint256",
          "name": "expiry",
          "type": "uint256"
        },
        {
          "internalType": "uint8",
          "name": "v",
          "type": "uint8"
        },
        {
          "internalType": "bytes32",
          "name": "r",
          "type": "bytes32"
        },
        {
          "internalType": "bytes32",
          "name": "s",
          "type": "bytes32"
        }
      ],
      "name": "delegateBySig",
      "outputs": [],
      "stateMutability": "nonpayable",
      "type": "function"
    },
    {
      "inputs": [
        {
          "internalType": "address",
          "name": "account",
          "type": "address"
        }
      ],
      "name": "delegates",
      "outputs": [
        {
          "internalType": "address",
          "name": "",
          "type": "address"
        }
      ],
      "stateMutability": "view",
      "type": "function"
    },
    {
      "inputs": [
        {
          "internalType": "address",
          "name": "account",
          "type": "address"
        },
        {
          "internalType": "uint256",
          "name": "amount",
          "type": "uint256"
        }
      ],
      "name": "depositFor",
      "outputs": [
        {
          "internalType": "bool",
          "name": "",
          "type": "bool"
        }
      ],
      "stateMutability": "nonpayable",
      "type": "function"
    },
    {
      "inputs": [],
      "name": "eip712Domain",
      "outputs": [
        {
          "internalType": "bytes1",
          "name": "fields",
          "type": "bytes1"
        },
        {
          "internalType": "string",
          "name": "name",
          "type": "string"
        },
        {
          "internalType": "string",
          "name": "version",
          "type": "string"
        },
        {
          "internalType": "uint256",
          "name": "chainId",
          "type": "uint256"
        },
        {
          "internalType": "address",
          "name": "verifyingContract",
          "type": "address"
        },
        {
          "internalType": "bytes32",
          "name": "salt",
          "type": "bytes32"
        },
        {
          "internalType": "uint256[]",
          "name": "extensions",
          "type": "uint256[]"
        }
      ],
      "stateMutability": "view",
      "type": "function"
    },
    {
      "inputs": [
        {
          "internalType": "uint256",
          "name": "timepoint",
          "type": "uint256"
        }
      ],
      "name": "getPastTotalSupply",
      "outputs": [
        {
          "internalType": "uint256",
          "name": "",
          "type": "uint256"
        }
      ],
      "stateMutability": "view",
      "type": "function"
    },
    {
      "inputs": [
        {
          "internalType": "address",
          "name": "account",
          "type": "address"
        },
        {
          "internalType": "uint256",
          "name": "timepoint",
          "type": "uint256"
        }
      ],
      "name": "getPastVotes",
      "outputs": [
        {
          "internalType": "uint256",
          "name": "",
          "type": "uint256"
        }
      ],
      "stateMutability": "view",
      "type": "function"
    },
    {
      "inputs": [
        {
          "internalType": "address",
          "name": "account",
          "type": "address"
        }
      ],
      "name": "getVotes",
      "outputs": [
        {
          "internalType": "uint256",
          "name": "",
          "type": "uint256"
        }
      ],
      "stateMutability": "view",
      "type": "function"
    },
    {
      "inputs": [
        {
          "internalType": "address",
          "name": "spender",
          "type": "address"
        },
        {
          "internalType": "uint256",
          "name": "addedValue",
          "type": "uint256"
        }
      ],
      "name": "increaseAllowance",
      "outputs": [
        {
          "internalType": "bool",
          "name": "",
          "type": "bool"
        }
      ],
      "stateMutability": "nonpayable",
      "type": "function"
    },
    {
      "inputs": [],
      "name": "name",
      "outputs": [
        {
          "internalType": "string",
          "name": "",
          "type": "string"
        }
      ],
      "stateMutability": "view",
      "type": "function"
    },
    {
      "inputs": [
        {
          "internalType": "address",
          "name": "owner",
          "type": "address"
        }
      ],
      "name": "nonces",
      "outputs": [
        {
          "internalType": "uint256",
          "name": "",
          "type": "uint256"
        }
      ],
      "stateMutability": "view",
      "type": "function"
    },
    {
      "inputs": [
        {
          "internalType": "address",
          "name": "account",
          "type": "address"
        }
      ],
      "name": "numCheckpoints",
      "outputs": [
        {
          "internalType": "uint32",
          "name": "",
          "type": "uint32"
        }
      ],
      "stateMutability": "view",
      "type": "function"
    },
    {
      "inputs": [
        {
          "internalType": "address",
          "name": "owner",
          "type": "address"
        },
        {
          "internalType": "address",
          "name": "spender",
          "type": "address"
        },
        {
          "internalType": "uint256",
          "name": "value",
          "type": "uint256"
        },
        {
          "internalType": "uint256",
          "name": "deadline",
          "type": "uint256"
        },
        {
          "internalType": "uint8",
          "name": "v",
          "type": "uint8"
        },
        {
          "internalType": "bytes32",
          "name": "r",
          "type": "bytes32"
        },
        {
          "internalType": "bytes32",
          "name": "s",
          "type": "bytes32"
        }
      ],
      "name": "permit",
      "outputs": [],
      "stateMutability": "nonpayable",
      "type": "function"
    },
    {
      "inputs": [],
      "name": "symbol",
      "outputs": [
        {
          "internalType": "string",
          "name": "",
          "type": "string"
        }
      ],
      "stateMutability": "view",
      "type": "function"
    },
    {
      "inputs": [],
      "name": "totalSupply",
      "outputs": [
        {
          "internalType": "uint256",
          "name": "",
          "type": "uint256"
        }
      ],
      "stateMutability": "view",
      "type": "function"
    },
    {
      "inputs": [
        {
          "internalType": "address",
          "name": "to",
          "type": "address"
        },
        {
          "internalType": "uint256",
          "name": "amount",
          "type": "uint256"
        }
      ],
      "name": "transfer",
      "outputs": [
        {
          "internalType": "bool",
          "name": "",
          "type": "bool"
        }
      ],
      "stateMutability": "nonpayable",
      "type": "function"
    },
    {
      "inputs": [
        {
          "internalType": "address",
          "name": "from",
          "type": "address"
        },
        {
          "internalType": "address",
          "name": "to",
          "type": "address"
        },
        {
          "internalType": "uint256",
          "name": "amount",
          "type": "uint256"
        }
      ],
      "name": "transferFrom",
      "outputs": [
        {
          "internalType": "bool",
          "name": "",
          "type": "bool"
        }
      ],
      "stateMutability": "nonpayable",
      "type": "function"
    },
    {
      "inputs": [],
      "name": "underlying",
      "outputs": [
        {
          "internalType": "contract IERC20",
          "name": "",
          "type": "address"
        }
      ],
      "stateMutability": "view",
      "type": "function"
    },
    {
      "inputs": [
        {
          "internalType": "address",
          "name": "account",
          "type": "address"
        },
        {
          "internalType": "uint256",
          "name": "amount",
          "type": "uint256"
        }
      ],
      "name": "withdrawTo",
      "outputs": [
        {
          "internalType": "bool",
          "name": "",
          "type": "bool"
        }
      ],
      "stateMutability": "nonpayable",
      "type": "function"
    }
  ],
  "bytecode": "0x610180346200054657601f6200304a38819003918201601f19168301916001600160401b0383118484101762000319578084926020946040528339810103126200054657516001600160a01b0381168103620005465760405162000063816200054b565b60088152673b2426aa37b5b2b760c11b908160208201526040519162000089836200054b565b60088352602083015260405192620000a1846200054b565b60048452631d92135560e21b602085015260405192620000c1846200054b565b60018452603160f81b60208501528051906001600160401b038211620003195760035490600182811c921680156200053b575b60208310146200040e5781601f849311620004c6575b50602090601f83116001146200043b576000926200042f575b50508160011b916000199060031b1c1916176003555b83516001600160401b0381116200031957600454600181811c9116801562000424575b60208210146200040e57601f8111620003a8575b50602094601f82116001146200033b579481929394956000926200032f575b50508160011b916000199060031b1c1916176004555b620001b08262000567565b91610120928352620001c2846200072b565b9061014091825260208151910120938460e0526020815191012093610100948086524660a0526040519060208201927f8b73c3c69bb8fe3d512ecc4cf759cc79239f7b179b0ffacaa9a75d522b39400f8452604083015260608201524660808201523060a082015260a0815260c081019181831060018060401b0384111762000319576040839052815190206080523060c08190526001600160a01b03851614620002d5575050610160918252604051926127669485620008e4863960805185611695015260a05185611750015260c0518561165f015260e051856116e40152518461170a015251836109b3015251826109dd0152518181816103fd01528181610591015281816108ad01526115e10152f35b62461bcd60e51b8252602060c4820152601e60e48201527f4552433230577261707065723a2063616e6e6f742073656c662077726170000061010490910152606490fd5b634e487b7160e01b600052604160045260246000fd5b0151905038806200018f565b601f19821695600460005260206000209160005b8881106200038f5750836001959697981062000375575b505050811b01600455620001a5565b015160001960f88460031b161c1916905538808062000366565b919260206001819286850151815501940192016200034f565b60046000527f8a35acfbc15ff81a39ae7d344fd709f28e8600b4aa8c65c6b64bfe7fe36bd19b601f830160051c81016020841062000406575b601f830160051c82018110620003f957505062000170565b60008155600101620003e1565b5080620003e1565b634e487b7160e01b600052602260045260246000fd5b90607f16906200015c565b01519050388062000123565b600360009081527fc2575a0e9e593c00f959f8c92f12db2869c3395a3b0502d05e2516446f71f85b9350601f198516905b818110620004ad575090846001959493921062000493575b505050811b0160035562000139565b015160001960f88460031b161c1916905538808062000484565b929360206001819287860151815501950193016200046c565b60036000529091507fc2575a0e9e593c00f959f8c92f12db2869c3395a3b0502d05e2516446f71f85b601f840160051c8101916020851062000530575b90601f859493920160051c01905b8181106200052057506200010a565b6000815584935060010162000511565b909150819062000503565b91607f1691620000f4565b600080fd5b604081019081106001600160401b038211176200031957604052565b8051602091908281101562000606575090601f825111620005a557808251920151908083106200059657501790565b82600019910360031b1b161790565b90604051809263305a27a960e01b82528060048301528251908160248401526000935b828510620005ec575050604492506000838284010152601f80199101168101030190fd5b8481018201518686016044015293810193859350620005c8565b6001600160401b03811162000319576005928354926001938481811c9116801562000720575b838210146200040e57601f8111620006e9575b5081601f84116001146200067f575092829391839260009462000673575b50501b916000199060031b1c191617905560ff90565b0151925038806200065d565b919083601f1981168760005284600020946000905b88838310620006ce5750505010620006b4575b505050811b01905560ff90565b015160001960f88460031b161c19169055388080620006a7565b85870151885590960195948501948793509081019062000694565b8560005284601f846000209201871c820191601f8601881c015b828110620007135750506200063f565b6000815501859062000703565b90607f16906200062c565b805160209081811015620007b95750601f8251116200075857808251920151908083106200059657501790565b90604051809263305a27a960e01b82528060048301528251908160248401526000935b8285106200079f575050604492506000838284010152601f80199101168101030190fd5b84810182015186860160440152938101938593506200077b565b906001600160401b0382116200031957600654926001938481811c91168015620008d8575b838210146200040e57601f81116200089e575b5081601f841160011462000832575092829391839260009462000826575b50501b916000199060031b1c19161760065560ff90565b0151925038806200080f565b919083601f198116600660005284600020946000905b8883831062000883575050501062000869575b505050811b0160065560ff90565b015160001960f88460031b161c191690553880806200085b565b85870151885590960195948501948793509081019062000848565b600660005284601f84600020920160051c820191601f860160051c015b828110620008cb575050620007f1565b60008155018590620008bb565b90607f1690620007de56fe6080604052600436101561001257600080fd5b60003560e01c806306fdde03146101d7578063095ea7b3146101d257806318160ddd146101cd578063205c2878146101c857806323b872dd146101c35780632f4f21e2146101be578063313ce567146101b95780633644e515146101b457806339509351146101af5780633a46b1a8146101aa5780634bf5d7e9146101a5578063587cde1e146101a05780635c19a95c1461019b5780636f307dc3146101965780636fcfff451461019157806370a082311461018c5780637ecebe001461018757806384b0196e146101825780638e539e8c1461017d57806391ddadf41461017857806395d89b41146101735780639ab24eb01461016e578063a457c2d714610169578063a9059cbb14610164578063c3cda5201461015f578063d505accf1461015a578063dd62ed3e146101555763f1127ed81461015057600080fd5b610fe8565b610f9c565b610e6e565b610d59565b610d28565b610c8c565b610c2a565b610b9e565b610b7b565b610a93565b610998565b61095e565b610924565b6108dc565b610897565b610873565b610838565b6107e9565b6106a0565b610654565b610631565b61060b565b610536565b61047c565b610372565b610354565b610323565b610230565b919082519283825260005b848110610208575050826000602080949584010152601f8019910116010190565b6020818301810151848301820152016101e7565b90602061022d9281815201906101dc565b90565b346102f2576000806003193601126102ef57604051816003546102528161106f565b908184526020926001916001811690816000146102cd5750600114610292575b61028e8561028281890382611130565b6040519182918261021c565b0390f35b929450600383528483205b8284106102ba575050508161028e93610282928201019338610272565b805485850187015292850192810161029d565b60ff191686860152505050151560051b82010191506102828161028e38610272565b80fd5b600080fd5b600435906001600160a01b03821682036102f257565b602435906001600160a01b03821682036102f257565b346102f25760403660031901126102f25761034961033f6102f7565b60243590336112e3565b602060405160018152f35b346102f25760003660031901126102f2576020600254604051908152f35b346102f25760403660031901126102f25761038b6102f7565b602435331561042d5761042191816103a2336111bf565b546103af828210156121df565b036103b9336111bf565b556103c78260025403600255565b60405182815260009033906000805160206126f183398151915290602090a36103f08233612503565b6103f982612305565b50507f0000000000000000000000000000000000000000000000000000000000000000611401565b60405160018152602090f35b60405162461bcd60e51b815260206004820152602160248201527f45524332303a206275726e2066726f6d20746865207a65726f206164647265736044820152607360f81b6064820152608490fd5b346102f25760603660031901126102f2576104956102f7565b61049d61030d565b6044359060018060a01b03831660005260016020526104c03360406000206111d9565b5492600184016104d5575b6104219350611503565b8284106104f1576104ec83610421950333836112e3565b6104cb565b60405162461bcd60e51b815260206004820152601d60248201527f45524332303a20696e73756666696369656e7420616c6c6f77616e63650000006044820152606490fd5b346102f25760403660031901126102f25761054f6102f7565b6024353033146105ba57610421916105b56040516323b872dd60e01b60208201523360248201523060448201528360648201526064815261058f816110df565b7f0000000000000000000000000000000000000000000000000000000000000000611ab0565b611be3565b60405162461bcd60e51b815260206004820152602360248201527f4552433230577261707065723a20777261707065722063616e2774206465706f6044820152621cda5d60ea1b6064820152608490fd5b346102f25760003660031901126102f25760206106266115cc565b60ff60405191168152f35b346102f25760003660031901126102f257602061064c61165c565b604051908152f35b346102f25760403660031901126102f25761066d6102f7565b3360005260016020526106848160406000206111d9565b54602435810180911161069b5761034991336112e3565b611153565b346102f25760403660031901126102f2576106b96102f7565b602435906106d065ffffffffffff42168310611177565b6001600160a01b03166000908152600a6020526040812080549290918360058111610798575b50905b83821061074757505081610720575050602060005b6040516001600160e01b039091168152f35b61073b61074291602093600019019060005260206000200190565b5460201c90565b61070e565b90926107538185611e32565b908263ffffffff61077861076e858860005260206000200190565b5463ffffffff1690565b1611156107885750925b906106f9565b935061079390611169565b610782565b806107a86107ae92969396611cc8565b90611776565b908263ffffffff6107c961076e858860005260206000200190565b1611156107d95750925b386106f6565b93506107e490611169565b6107d3565b346102f25760003660031901126102f25761028e604051610809816110bf565b600e81526d06d6f64653d74696d657374616d760941b60208201526040519182916020835260208301906101dc565b346102f25760203660031901126102f25760206001600160a01b038061085c6102f7565b166000526009825260406000205416604051908152f35b346102f25760203660031901126102f25761089561088f6102f7565b33611783565b005b346102f25760003660031901126102f2576040517f00000000000000000000000000000000000000000000000000000000000000006001600160a01b03168152602090f35b346102f25760203660031901126102f2576001600160a01b036108fd6102f7565b16600052600a60205260206109166040600020546117f7565b63ffffffff60405191168152f35b346102f25760203660031901126102f2576001600160a01b036109456102f7565b1660005260006020526020604060002054604051908152f35b346102f25760203660031901126102f2576001600160a01b0361097f6102f7565b1660005260076020526020604060002054604051908152f35b346102f2576000806003193601126102ef57610a36906109d77f000000000000000000000000000000000000000000000000000000000000000061185c565b90610a017f0000000000000000000000000000000000000000000000000000000000000000611939565b9060405191610a0f836110fa565b818352610a44602091604051968796600f60f81b885260e0602089015260e08801906101dc565b9086820360408801526101dc565b904660608601523060808601528260a086015284820360c0860152602080855193848152019401925b828110610a7c57505050500390f35b835185528695509381019392810192600101610a6d565b346102f25760203660031901126102f257600435610aba65ffffffffffff42168210611177565b600b549060008260058111610b38575b50905b828210610af9578280610ae7575060405160008152602090f35b61074261073b60209260001901611e08565b9091610b058184611e32565b908263ffffffff610b1861076e85611e08565b161115610b285750915b90610acd565b9250610b3390611169565b610b22565b806107a8610b4892959395611cc8565b908263ffffffff610b5b61076e85611e08565b161115610b6b5750915b38610aca565b9250610b7690611169565b610b65565b346102f25760003660031901126102f257602060405165ffffffffffff42168152f35b346102f2576000806003193601126102ef5760405181600454610bc08161106f565b908184526020926001916001811690816000146102cd5750600114610bef5761028e8561028281890382611130565b929450600483528483205b828410610c17575050508161028e93610282928201019338610272565b8054858501870152928501928101610bfa565b346102f25760203660031901126102f2576001600160a01b03610c4b6102f7565b16600052600a602052604060002080548015600014610c7257505060405160008152602090f35b602091610c839160001901906111ff565b5054811c61070e565b346102f25760403660031901126102f257610ca56102f7565b60243590336000526001602052610cc08160406000206111d9565b5491808310610cd557610421920390336112e3565b60405162461bcd60e51b815260206004820152602560248201527f45524332303a2064656372656173656420616c6c6f77616e63652062656c6f77604482015264207a65726f60d81b6064820152608490fd5b346102f25760403660031901126102f257610349610d446102f7565b6024359033611503565b60ff8116036102f257565b346102f25760c03660031901126102f257610d726102f7565b60643590602435604435610d8584610d4e565b804211610e2957610e14610e24916108959560405190610dfc82610dee6020820195898b8860609194939260808201957fe48329057bfd03d55e49b547132e39cffd9c1820ad7b9d4c5307691425d15adf835260018060a01b0316602083015260408201520152565b03601f198101845283611130565b610e0f60a43593608435935190206119d9565b6119ff565b91610e1e83611a16565b1461122d565b611783565b60405162461bcd60e51b815260206004820152601d60248201527f4552433230566f7465733a207369676e617475726520657870697265640000006044820152606490fd5b346102f25760e03660031901126102f257610e876102f7565b610e8f61030d565b604435906064359260843593610ea485610d4e565b804211610f5757610f3f610f5291610dee61089597610f2c610ec587611a16565b604080517f6e71edae12b1b97f4d1f60370fef10105fa2faae0126114a169c64845d6126c9602082019081526001600160a01b03808c1693830193909352918b166060820152608081018c905260a081019290925260c082019590955292839060e0820190565b610e0f60c4359360a435935190206119d9565b6001600160a01b03838116911614611275565b6112e3565b60405162461bcd60e51b815260206004820152601d60248201527f45524332305065726d69743a206578706972656420646561646c696e650000006044820152606490fd5b346102f25760403660031901126102f2576020610fdf610fba6102f7565b610fc261030d565b6001600160a01b03909116600090815260018452604090206111d9565b54604051908152f35b346102f25760403660031901126102f2576110016102f7565b63ffffffff60243581811681036102f25761104b6110519160409460006020875161102b816110bf565b82815201526001600160a01b03166000908152600a6020528590206111ff565b506112c1565b8251815190921682526020908101516001600160e01b031690820152f35b90600182811c9216801561109f575b602083101461108957565b634e487b7160e01b600052602260045260246000fd5b91607f169161107e565b634e487b7160e01b600052604160045260246000fd5b604081019081106001600160401b038211176110da57604052565b6110a9565b60a081019081106001600160401b038211176110da57604052565b602081019081106001600160401b038211176110da57604052565b60c081019081106001600160401b038211176110da57604052565b601f909101601f19168101906001600160401b038211908210176110da57604052565b634e487b7160e01b600052601160045260246000fd5b906001820180921161069b57565b1561117e57565b60405162461bcd60e51b815260206004820152601960248201527804552433230566f7465733a20667574757265206c6f6f6b757603c1b6044820152606490fd5b6001600160a01b0316600090815260208190526040902090565b9060018060a01b0316600052602052604060002090565b604051906111fd826110bf565b565b80548210156112175760005260206000200190600090565b634e487b7160e01b600052603260045260246000fd5b1561123457565b60405162461bcd60e51b81526020600482015260196024820152784552433230566f7465733a20696e76616c6964206e6f6e636560381b6044820152606490fd5b1561127c57565b60405162461bcd60e51b815260206004820152601e60248201527f45524332305065726d69743a20696e76616c6964207369676e617475726500006044820152606490fd5b906040516112ce816110bf565b602081935463ffffffff81168352811c910152565b6001600160a01b0380821692919083156113b0578216938415611360578061134a7f8c5be1e5ebec7d5bd14f71427d1e84f3dd0314c0f7b2291e5b200ac8c7c3b9259461134561135b9560018060a01b03166000526001602052604060002090565b6111d9565b556040519081529081906020820190565b0390a3565b60405162461bcd60e51b815260206004820152602260248201527f45524332303a20617070726f766520746f20746865207a65726f206164647265604482015261737360f01b6064820152608490fd5b60405162461bcd60e51b8152602060048201526024808201527f45524332303a20617070726f76652066726f6d20746865207a65726f206164646044820152637265737360e01b6064820152608490fd5b60405163a9059cbb60e01b60208201526001600160a01b03909216602483015260448083019390935291815260808101916001600160401b038311828410176110da576111fd92604052611ab0565b1561145757565b60405162461bcd60e51b815260206004820152602360248201527f45524332303a207472616e7366657220746f20746865207a65726f206164647260448201526265737360e81b6064820152608490fd5b156114af57565b60405162461bcd60e51b815260206004820152602660248201527f45524332303a207472616e7366657220616d6f756e7420657863656564732062604482015265616c616e636560d01b6064820152608490fd5b6001600160a01b039291908381168015611579576111fd94831690611529821515611450565b84611533846111bf565b54611540828210156114a8565b0361154a846111bf565b55611554846111bf565b8054860190556040518581526000805160206126f183398151915290602090a3612578565b60405162461bcd60e51b815260206004820152602560248201527f45524332303a207472616e736665722066726f6d20746865207a65726f206164604482015264647265737360d81b6064820152608490fd5b60405163313ce56760e01b81526020816004817f00000000000000000000000000000000000000000000000000000000000000006001600160a01b03165afa6000918161161f575b5061022d5750601290565b9091506020813d602011611654575b8161163b60209383611130565b810103126102f2575161164d81610d4e565b9038611614565b3d915061162e565b307f00000000000000000000000000000000000000000000000000000000000000006001600160a01b0316148061174d575b156116b7577f000000000000000000000000000000000000000000000000000000000000000090565b60405160208101907f8b73c3c69bb8fe3d512ecc4cf759cc79239f7b179b0ffacaa9a75d522b39400f82527f000000000000000000000000000000000000000000000000000000000000000060408201527f000000000000000000000000000000000000000000000000000000000000000060608201524660808201523060a082015260a0815261174781611115565b51902090565b507f0000000000000000000000000000000000000000000000000000000000000000461461168e565b9190820391821161069b57565b6001600160a01b039081166000818152600960208181526040808420805485845291852054939092528686166001600160a01b0319821681179092556111fd9692959294921692909183917f3134e8a2e6d97e929a7e54011ea5485d7d196dd5f0ba4d4ef95803e8e3fc257f9080a4611e47565b63ffffffff90818111611808571690565b60405162461bcd60e51b815260206004820152602660248201527f53616665436173743a2076616c756520646f65736e27742066697420696e203360448201526532206269747360d01b6064820152608490fd5b60ff811461189a5760ff811690601f8211611888576040519161187e836110bf565b8252602082015290565b604051632cd44ac360e21b8152600490fd5b506040516005548160006118ad8361106f565b80835260209360019081811690811561191957506001146118d7575b505061022d92500382611130565b90939150600560005281600020936000915b81831061190157505061022d935082010138806118c9565b855487840185015294850194869450918301916118e9565b91505061022d94925060ff191682840152151560051b82010138806118c9565b60ff811461195b5760ff811690601f8211611888576040519161187e836110bf565b5060405160065481600061196e8361106f565b808352602093600190818116908115611919575060011461199757505061022d92500382611130565b90939150600660005281600020936000915b8183106119c157505061022d935082010138806118c9565b855487840185015294850194869450918301916119a9565b6042906119e461165c565b906040519161190160f01b8352600283015260228201522090565b9161022d9391611a0e9361201b565b9190916120c0565b6001600160a01b0316600090815260076020526040902080546001810190915590565b908160209103126102f2575180151581036102f25790565b15611a5857565b60405162461bcd60e51b815260206004820152602a60248201527f5361666545524332303a204552433230206f7065726174696f6e20646964206e6044820152691bdd081cdd58d8d9595960b21b6064820152608490fd5b60405191906001600160a01b0316611ac7836110bf565b6000806020938486527f5361666545524332303a206c6f772d6c6576656c2063616c6c206661696c656485870152848151910182855af1923d15611b6e573d6001600160401b0381116110da576111fd94611b419360405192611b3387601f19601f8401160185611130565b83523d60008785013e612625565b8051918215928315611b56575b505050611a51565b611b669350820181019101611a39565b388080611b4e565b611b41916111fd94606091612625565b15611b8557565b60405162461bcd60e51b815260206004820152603060248201527f4552433230566f7465733a20746f74616c20737570706c79207269736b73206f60448201526f766572666c6f77696e6720766f74657360801b6064820152608490fd5b906001600160a01b0382168015611c635760025482810180911161069b57611c5f93611c4492611c138593600255565b611c1c826111bf565b8054840190556040518381526000906000805160206126f183398151915290602090a361253f565b600254611c5a906001600160e01b031015611b7e565b6123f3565b5050565b60405162461bcd60e51b815260206004820152601f60248201527f45524332303a206d696e7420746f20746865207a65726f2061646472657373006044820152606490fd5b8115611cb2570490565b634e487b7160e01b600052601260045260246000fd5b8015611e025780611d9b611d94611d8a611d80611d76611d6c611d62611d58600161022d9a6000908b60801c80611df6575b508060401c80611de9575b508060201c80611ddc575b508060101c80611dcf575b508060081c80611dc2575b508060041c80611db5575b508060021c80611da8575b50821c611da1575b811c1b611d51818b611ca8565b0160011c90565b611d51818a611ca8565b611d518189611ca8565b611d518188611ca8565b611d518187611ca8565b611d518186611ca8565b611d518185611ca8565b8092611ca8565b906125aa565b8101611d44565b6002915091019038611d3c565b6004915091019038611d31565b6008915091019038611d26565b6010915091019038611d1b565b6020915091019038611d10565b6040915091019038611d05565b91505060809038611cfa565b50600090565b600b6000527f0175b7a638427703f0dbe7bb9bbf987a2551717b34e79f33b5b1008d1fa01db90190565b90808216911860011c810180911161069b5790565b6001600160a01b03808316939291168084141580612012575b611e6b575b50505050565b80611ec7575b5082611e7e575b80611e65565b6001600160a01b03166000908152600a6020526040902060008051602061271183398151915291611eae9161244c565b60408051928352602083019190915290a2388080611e78565b80600052600a6020526000805160206127118339815191526040600020805480159182600014611fef57611ef96111f0565b6000815260006020820152915b6020830151611f25906001600160e01b03165b6001600160e01b031690565b92611f3089856126b6565b94159081611fd0575b5015611f7c57611f61611f6692611f4f866125bc565b92600019019060005260206000200190565b612236565b604080519182526020820192909252a238611e71565b50611fcb90611f9265ffffffffffff42166117f7565b90611fc6611f9f866125bc565b611fb6611faa6111f0565b63ffffffff9095168552565b6001600160e01b03166020840152565b6122a3565b611f66565b5163ffffffff16905063ffffffff164265ffffffffffff161438611f39565b61200c61200760001984018360005260206000200190565b6112c1565b91611f06565b50821515611e60565b9291906fa2a8918ca85bafe22016d0b997e4df60600160ff1b0383116120945791608094939160ff602094604051948552168484015260408301526060820152600093849182805260015afa156120875781516001600160a01b03811615612081579190565b50600190565b50604051903d90823e3d90fd5b50505050600090600390565b600511156120aa57565b634e487b7160e01b600052602160045260246000fd5b6120c9816120a0565b806120d15750565b6120da816120a0565b600181036121265760405162461bcd60e51b815260206004820152601860248201527745434453413a20696e76616c6964207369676e617475726560401b6044820152606490fd5b0390fd5b61212f816120a0565b6002810361217c5760405162461bcd60e51b815260206004820152601f60248201527f45434453413a20696e76616c6964207369676e6174757265206c656e677468006044820152606490fd5b806121886003926120a0565b1461218f57565b60405162461bcd60e51b815260206004820152602260248201527f45434453413a20696e76616c6964207369676e6174757265202773272076616c604482015261756560f01b6064820152608490fd5b156121e657565b60405162461bcd60e51b815260206004820152602260248201527f45524332303a206275726e20616d6f756e7420657863656564732062616c616e604482015261636560f01b6064820152608490fd5b9063ffffffff82549181199060201b169116179055565b600b5490600160401b8210156110da576001820180600b55821015611217576111fd91600b6000526020600020019063ffffffff81511663ffffffff19835416178255602060018060e01b039101511690612236565b8054600160401b8110156110da576122c0916001820181556111ff565b6122ef578163ffffffff6111fd93511663ffffffff19835416178255602060018060e01b039101511690612236565b634e487b7160e01b600052600060045260246000fd5b600b54909181159182156123de5761231b6111f0565b60008152600060208201525b602081015161234990612342906001600160e01b0316611f19565b95866126b6565b931590816123bf575b5015612372576111fd90611f61612368856125bc565b9160001901611e08565b506111fd61238765ffffffffffff42166117f7565b6123ba612393856125bc565b6123aa61239e6111f0565b63ffffffff9094168452565b6001600160e01b03166020830152565b61224d565b5163ffffffff16905063ffffffff164265ffffffffffff161438612352565b6123ee6120076000198301611e08565b612327565b600b5490918115918215612437576124096111f0565b60008152600060208201525b602081015161234990612430906001600160e01b0316611f19565b95866126c3565b6124476120076000198301611e08565b612415565b9091815491821592836000146124e6576124646111f0565b60008152600060208201525b60208101516124929061248b906001600160e01b0316611f19565b96876126c3565b941590816124c7575b50156124b157611f616111fd92611f4f866125bc565b506111fd90611f9265ffffffffffff42166117f7565b5163ffffffff16905063ffffffff164265ffffffffffff16143861249b565b6124fe61200760001983018460005260206000200190565b612470565b6001600160a01b039081166000908152600960205260408120549080526000805160206126d1833981519152546111fd93929081169116611e47565b60096020526000805160206126d1833981519152546001600160a01b03918216600090815260409020546111fd93929081169116611e47565b6001600160a01b039081166000908152600960205260408082205493831682529020546111fd93929082169116611e47565b90808210156125b7575090565b905090565b6001600160e01b03908181116125d0571690565b60405162461bcd60e51b815260206004820152602760248201527f53616665436173743a2076616c756520646f65736e27742066697420696e20326044820152663234206269747360c81b6064820152608490fd5b919290156126875750815115612639575090565b3b156126425790565b60405162461bcd60e51b815260206004820152601d60248201527f416464726573733a2063616c6c20746f206e6f6e2d636f6e74726163740000006044820152606490fd5b82519091501561269a5750805190602001fd5b60405162461bcd60e51b8152908190612122906004830161021c565b90810390811161069b5790565b90810180911161069b579056feec8156718a8372b1db44bb411437d0870f3e3790d4a08526d024ce1b0b668f6bddf252ad1be2c89b69c2b068fc378daa952ba7f163c4a11628f55a4df523b3efdec2bacdd2f05b59de34da9b523dff8be42e5e38e818c82fdb0bae774387a724a26469706673582212209916e658219512d37f38df8c54913fca3ed7ad26c78d5aa0f3166940795fc24064736f6c63430008170033",
  "linkReferences": {},
  "deployedLinkReferences": {}
}